:100000000C9446050C946E050C946E050C946E05CC
:100010000C946E050C946E050C946E050C946E0594
:100020000C946E050C946E050C946E050C946E0584
:100030000C946E050C946E050C946E050C946E0574
:100040000C9471190C946E050C94E1190C94BB1965
:100050000C946E050C946E050C946E050C946E0554
:100060000C94131A0C946E0500000000003E5B4FC8
:100070005B3E3E6B4F6B3E1C3E7C3E1C183C7E3C08
:10008000181C577D571C1C5E7F5E1C00183C180016
:10009000FFE7C3E7FF0018241800FFE7DBE7FF30A6
:1000A000483A060E2629792926407F050507407F14
:1000B00005253F5A3CE73C5A7F3E1C1C08081C1C87
:1000C0003E7F14227F22145F5F005F5F06097F017D
:1000D0007F006689956A606060606094A2FFA29468
:1000E00008047E040810207E201008082A1C080836
:1000F0001C2A08081E101010100C1E0C1E0C303884
:100100003E3830060E3E0E06000000000000005F84
:1001100000000007000700147F147F14242A7F2AA0
:100120001223130864623649562050000807030062
:10013000001C2241000041221C002A1C7F1C2A08AE
:10014000083E080800807030000808080808000011
:1001500060600020100804023E5149453E00427F85
:10016000400072494949462141494D331814127FD4
:100170001027454545393C4A494931412111090774
:100180003649494936464949291E000014000000F5
:1001900040340000000814224114141414140041C7
:1001A00022140802015909063E415D594E7C121184
:1001B000127C7F494949363E414141227F414141BC
:1001C0003E7F494949417F090909013E4141517337
:1001D0007F0808087F00417F41002040413F017FA8
:1001E000081422417F404040407F021C027F7F0470
:1001F00008107F3E4141413E7F090909063E4151B9
:10020000215E7F09192946264949493203017F01A8
:10021000033F4040403F1F2040201F3F4038403FA9
:10022000631408146303047804036159494D4300BF
:100230007F4141410204081020004141417F0402F6
:10024000010204404040404000030708002054548D
:1002500078407F284444383844444428384444286B
:100260007F385454541800087E090218A4A49C78BE
:100270007F0804047800447D40002040403D007F1A
:100280001028440000417F40007C047804787C08FA
:100290000404783844444438FC18242418182424CE
:1002A00018FC7C08040408485454542404043F44B3
:1002B000243C4040207C1C2040201C3C4030403CE2
:1002C00044281028444C9090907C4464544C440042
:1002D00008364100000077000000413608000201A6
:1002E0000204023C2623263C1EA1A161123A404092
:1002F000207A38545455592155557941225454780F
:1003000042215554784020545579400C1E527212A7
:100310003955555559395454545939555454580030
:1003200000457C410002457D420001457C407D1234
:1003300011127DF0282528F07C5455450020545496
:100340007C547C0A097F4932494949323A44444441
:100350003A324A4848303A4141217A3A424020787C
:10036000009DA0A07D3D4242423D3D4040403D3C7D
:1003700024FF2424487E4943662B2FFC2F2BFF09A2
:1003800029F620C0887E0903205454794100004496
:100390007D413048484A32384040227A007A0A0A81
:1003A000727D0D19317D2629292F282629292926F4
:1003B00030484D4020380808080808080808382F39
:1003C00010C8ACBA2F102834FA00007B00000814C3
:1003D0002A142222142A14085500550055AA55AA99
:1003E00055AAFF55FF55FF000000FF00101010FF39
:1003F00000141414FF001010FF00FF1010F010F094
:10040000141414FC001414F700FF0000FF00FF1484
:1004100014F404FC141417101F10101F101F1414D0
:10042000141F00101010F0000000001F101010101A
:100430001F10101010F010000000FF10101010100E
:1004400010101010FF10000000FF140000FF00FF4C
:1004500000001F10170000FC04F4141417101714E8
:1004600014F404F40000FF00F7141414141414140A
:10047000F700F7141414171410101F101F1414147D
:10048000F4141010F010F000001F101F0000001FE7
:1004900014000000FC140000F010F01010FF10FF1A
:1004A000141414FF141010101F00000000F010FFAF
:1004B000FFFFFFFFF0F0F0F0F0FFFFFF0000000093
:1004C00000FFFF0F0F0F0F0F3844443844FC4A4A17
:1004D0004A347E02020606027E027E0263554941CC
:1004E000633844443C04407E201E2006027E020203
:1004F00099A5E7A5991C2A492A1C4C7201724C3017
:100500004A4D4D303048784830BC625A463D3E49ED
:100510004949007E0101017E2A2A2A2A2A44445F91
:10052000444440514A444040444A51400000FF0185
:1005300003E080FF000008086B6B08361236243693
:10054000060F090F060000181800000010100030F8
:1005500040FF0101001F01011E00191D1712003C80
:100560003C3C3C0000000000000103070F1F3F7FE0
:100570000080C0E0F0F8FCFE000000002300260030
:100580002900000000080002010000030407000029
:1005900000000000000000000000240027002A00E6
:1005A000DB40A4A62EAF2000A1C8D300408DAED55D
:1005B00080A80102040810204080010204081020D5
:1005C00001020408102000000000250028002B0074
:1005D00004040404040404040202020202020303E9
:1005E000030303030000600000000000000000009F
:1005F0000000000000E0000000000000000000001B
:1006000000000001E0000000000000000000000009
:10061000000001F0000000000000000000000000E9
:100620000003F000000000000000000000000000D7
:1006300007F00000000000000000000000000007BC
:10064000F8000000000000000000000000000FF8AB
:1006500000000003C0007E000001E0007F0FF800F2
:10066000000003C000FE000001E000FFEFF8000002
:100670000003C000FE000001E000FFFFF8000000E2
:1006800003C000F00000000F007FFE7FC0000003E9
:10069000C000F00000000F003FFE7FF83FF1FBCFED
:1006A000FCFEF3BC3DEFE01FFE7FFF7FFBFFDFFEA4
:1006B000FEFFBC3DEFE01FC6FFFF7FFBFFDFFEFE3E
:1006C000FFBC3DEFE00FE3C7FE787BC3DE1EF0FF0B
:1006D000BC3DEF0007FF87FC787BC3DE1EF0F83CD3
:1006E0003DEF0001FFFFF0007BC3C01EF0F03C3D7A
:1006F000EF0001F37FE03FFBC3CFFEF0F03C3DEFA6
:100700000003E33F807FFBC3DFFEF0F03C3DEF00E2
:1007100007E73C00787BC3DE1EF0F03C3DEF0007AE
:10072000FFBE00787BC3DE1EF0F03C3DEF0007FF0C
:10073000FE00787BC3DE1EF0F03C3DEF000FFFFEB5
:10074000007FFBFFDFFEF0F03FFDEFE00FFFFF005B
:100750007FFBFFDFFEF0F03FFDEFE00FF9FF003E13
:1007600079F9CF9EF0F01F3DE7E01FF1FF00000098
:100770000000000000000000001F80FF007FFFFF5E
:10078000FFFFFFFFFFFFFFE01C007F007FFFFFFF79
:10079000FEB46D888D18E000001F007FFFFFFFFE94
:1007A00095AD7DB577E000000F007FFFFFFFFEA550
:1007B000AD9D8D19E0000006007FFFFFFFFEB5AD87
:1007C000EDB57EE0000000000001800000000000A8
:1007D000000000000380000000000000000000078F
:1007E000C000000000000000000007C00000000082
:1007F00000000000000FC00000000000000000002A
:100800001FE00000000000000000001FE0000000EA
:100810000000000000003FE00000000000000000B9
:10082000003FF00000000000000000007FF000002A
:1008300000000000001FF87FF00000000000000032
:100840003FFE7FF0000000000000003FFF7FF0004F
:100850000000000000001FFFFBE00000000000009F
:10086000000FFFF9FFC00000000000000FFFF9FFBC
:10087000F800000000000007FFF1FFFF000000008B
:10088000000003FC73FFFF80000000000001FE3F3A
:10089000FFFF80000000000000FF1E0FFF000000AF
:1008A000000000007FFE1FFC000000000000003F71
:1008B000FFFFF8000000000000000FDFFFE0000075
:1008C00000000000001F19FFC00000000000000031
:1008D0003F3CFF00000000000000007E7CF80000AC
:1008E0000000000000007FFE7C000000000000000F
:1008F00000FFFFFC0000000000000000FFFFFE0002
:1009000000000000000000FFFFFE000000000000EB
:100910000001FFEFFE0000000000000001FFCFFE1D
:100920000000000000000003FF07FE0000000000C0
:10093000000003FC07FE0000000000000003F003BD
:10094000FE00000000000000018000FE000000002A
:100950000000000000007E00000000000000000019
:10096000003E000000000000000000000C0000003D
:10097000000000078000FC000003C00000000780AA
:1009800001FC000003C0000000078001FC00000320
:10099000C0000000078001E00000001E000000070A
:1009A0008001E00000001E007FE3F79FF9FDE7787B
:1009B0007BDFC0FFF7FFBFFDFDFF787BDFC0FFF7E8
:1009C000FFBFFDFDFF787BDFC0F0F787BC3DE1FF97
:1009D000787BDE00F0F787BC3DE1F0787BDE00003D
:1009E000F787803DE1E0787BDE007FF7879FFDE1C0
:1009F000E0787BDE00FFF787BFFDE1E0787BDE007B
:100A0000F0F787BC3DE1E0787BDE00F0F787BC3D86
:100A1000E1E0787BDE00F0F787BC3DE1E0787BDE4B
:100A200000FFF7FFBFFDE1E07FFBDFC0FFF7FFBF87
:100A3000FDE1E07FFBDFC07CF3F39F3DE1E03E7B27
:100A4000CFC00000000000000000000000FFFFFF1A
:100A5000FFFFFFFFFFFFFFC0FFFFFFFFFD68DB1190
:100A60001A31C0FFFFFFFFFD2B5AFB6AEFC0FFFFEB
:100A7000FFFFFD4B5B3B1A33C0FFFFFFFFFD6B5BCE
:100A8000DB6AFDC02200FF21321B601D11241FBE46
:100A9000CFEFD8E0DEBFCDBF23E0A2EEB1E001C0D2
:100AA0001D92A63AB207E1F711E0A0E0B1E0E4ED53
:100AB000FFE302C005900D92A23EB107D9F715E001
:100AC000C5E4D5E004C02197FE010E94D01DC434C6
:100AD000D107C9F70E94C01B0C94DD1F0C940000C5
:100AE000089508950895833081F028F4813099F0B5
:100AF0008230A9F008958730A9F08830C9F0843099
:100B0000B1F4809180008F7D03C0809180008F7749
:100B100080938000089584B58F7784BD089584B54F
:100B20008F7DFBCF8091B0008F778093B0000895C8
:100B30008091B0008F7DF9CFCF93DF93282F30E0E5
:100B4000F901EE57FA4F8491F901EE54FA4FD4911E
:100B5000F901E053FA4FC491CC23A1F081110E9416
:100B60007305EC2FF0E0EE0FFF1FE858FA4FA59148
:100B7000B491EC91ED2381E090E009F480E0DF9105
:100B8000CF91089580E090E0FACF1F93CF93DF9349
:100B9000282F30E0F901EE57FA4F8491F901EE5415
:100BA000FA4FD491F901E053FA4FC491CC23A9F044
:100BB000162F81110E947305EC2FF0E0EE0FFF1F3E
:100BC000EA53FA4FA591B4918FB7F894EC911111B3
:100BD00008C0D095DE23DC938FBFDF91CF911F91AA
:100BE0000895DE2BF8CFCF93DF9390E0FC01EE5415
:100BF000FA4F249180539A4FFC0184918823C9F0C5
:100C000090E0880F991FFC01EA56FA4FA591B49124
:100C1000FC01EA53FA4FC591D49161110DC09FB701
:100C2000F8948C91209582238C93888128232883A3
:100C30009FBFDF91CF910895623051F49FB7F89430
:100C40003C91822F809583238C93E8812E2BEFCFCC
:100C50008FB7F894EC912E2B2C938FBFEACF3FB730
:100C6000F89480919E0290919F02A091A002B09171
:100C7000A10226B5A89B05C02F3F19F00196A11D22
:100C8000B11D3FBFBA2FA92F982F8827BC01CD01D6
:100C9000620F711D811D911D42E0660F771F881F35
:100CA000991F4A95D1F708958F929F92AF92BF9264
:100CB000CF92DF92EF92FF924B015C010E942F06D0
:100CC0006B017C010E942F066C197D098E099F091A
:100CD000683E734081059105A8F321E0821A9108CE
:100CE000A108B10888EEC80E83E0D81EE11CF11CF3
:100CF00081149104A104B10429F7FF90EF90DF90D3
:100D0000CF90BF90AF909F908F900895AF92BF9279
:100D1000CF92DF92EF92FF920F931F93CF93DF93C7
:100D20006C017B018B01040F151FEB015E01AE18F6
:100D3000BF08C017D10759F06991D601ED91FC9118
:100D40000190F081E02DC6010995892B79F7C50145
:100D5000DF91CF911F910F91FF90EF90DF90CF9097
:100D6000BF90AF900895FC01538D448D252F30E046
:100D7000842F90E0821B930B541710F0CF960895A8
:100D800001970895FC01918D828D981761F0A28DD5
:100D9000AE0FBF2FB11D5D968C91928D9F5F9F739B
:100DA000928F90E008958FEF9FEF0895FC01918D51
:100DB000828D981731F0828DE80FF11D858D90E0BE
:100DC00008958FEF9FEF0895FC01918D228D892F5B
:100DD00090E0805C9F4F821B91098F739927089543
:100DE0008DEA92E00E94E40621E0892B09F420E0DC
:100DF000822F089580E090E0892B29F00E94F00670
:100E000081110C9400000895FC01A48DA80FB92F46
:100E1000B11DA35ABF4F2C91848D90E001968F7322
:100E20009927848FA689B7892C93A089B1898C9141
:100E3000837080648C93938D848D981306C0028890
:100E4000F389E02D80818F7D80830895EF92FF925A
:100E50000F931F93CF93DF93EC0181E0888F9B8DDD
:100E60008C8D98131AC0E889F989808185FF15C097
:100E70009FB7F894EE89FF896083E889F9898081BA
:100E80008370806480839FBF81E090E0DF91CF9189
:100E90001F910F91FF90EF900895F62E0B8D10E0AB
:100EA0000F5F1F4F0F731127E02E8C8D8E110CC01A
:100EB0000FB607FCFACFE889F989808185FFF5CF65
:100EC000CE010E940407F1CFEB8DEC0FFD2FF11D39
:100ED000E35AFF4FF0829FB7F8940B8FEA89FB89A2
:100EE00080818062CFCFCF93DF93EC01888D882300
:100EF000B9F0AA89BB89E889F9898C9185FD03C07D
:100F0000808186FD0DC00FB607FCF7CF8C9185FF61
:100F1000F2CF808185FFEDCFCE010E940407E9CF9B
:100F2000DF91CF910895EF92FF920F931F93CF938C
:100F3000DF93EC01EC80FD806E157F050CF070C036
:100F400057FF04C0240F351F50E040E08E819F8181
:100F5000FA01E20FF31F8E179F071CF49C01241B5C
:100F6000350B121613060CF05BC0922F842F86955A
:100F7000869586958E9DD0018F9DB00D11246A0FA8
:100F80007B1FAF8DB8A1A60FB71F477049F188E04E
:100F9000841B482F682F70E0FB01E059FA4FE49161
:100FA000281708F063C0621B71092FEF30E002C000
:100FB000359527956A95E2F7E2230130110539F05E
:100FC000B0F10230110561F58C91E82702C08C91D7
:100FD000E82BEC93941720F12C813D81A20FB31FD5
:100FE000E92FE41BE83078F00230110521F58E2F4F
:100FF0009C9190959C932C813D81A20FB31F8850AA
:101000008830B0F7E770EE2359F0F0E0E859FA4F76
:10101000E49101301105F9F010F10230110519F1D8
:10102000DF91CF911F910F91FF90EF900895E09580
:101030008C91E823CECF81E00115110509F480E001
:1010400081959E2F8C932C813D81A20FB31F9850C8
:101050009830C0F7D7CF8C91E82BEC93E1CFE09597
:101060008C91E823FACF8C91E827F7CF0130110556
:1010700009F4ADCFE0F20230110509F4A5CFAE0DB1
:10108000BF1DAECF0F931F93CF93DF9377FF04C0A5
:10109000260F371F70E060E0DC011496CD91DC91E3
:1010A000FB01E20FF31FCE17DF071CF49E01261B86
:1010B000370B121613064CF5FA0157FD3796A3E0CD
:1010C000F595E795AA95E1F7EC9FD001ED9FB00D5E
:1010D000FC9FB00D11246A0F7B1FDC015F96ED9120
:1010E000FC91E60FF71F4770552781E090E001C0A3
:1010F000880F4A95EAF7482F0130110559F0A8F0FA
:101100002E0F3F1F02301105E1F0DF91CF911F91AB
:101110000F9108952E0F3F1FE217F307B1F381914E
:10112000DF011197842B8C93F7CF80952E0F3F1FF3
:10113000E217F30751F39191DF01119798239C93E4
:10114000F7CFE217F30709F38191DF0111978427A5
:101150008C93F7CF0F931F93FA01DC0156964C91B5
:1011600056974230E9F04330A1F1413061F51496D1
:101170004D915C91DA01AE1BBF0BFD01E21BF30B3D
:1011800077FD0BC0DC0116964D915C9164177507D5
:1011900024F4AB01BF010E9442081F910F910895F2
:1011A00014964D915C91DA01A61BB70BBD016150FD
:1011B0007109DC0116964D915C91DA01AE1BBF0BF3
:1011C000FD01E21BF30B77FDE8CFAF010E9493070F
:1011D000E4CF16964D915C91DA01A61BB70BBD01C9
:1011E00061507109CDCF0F931F93FA01DC01569620
:1011F0004C9156974230A9F0433091F1413019F5A6
:1012000014964D915C91DA01AE1BBF0BFD01319735
:10121000F7FD04C0AB01BF010E9493071F910F911E
:10122000089514964D915C91DA01A61BB70BBD0190
:10123000DC0116964D915C91DA01AE1BBF0BFD01EE
:101240003197621B730BF7FDE9CFDC0116964D91C8
:101250005C91E417F50714F7AF010E944208DECF56
:1012600016964D915C91DA01A61BB70BBD01621B6E
:10127000730BCECFFC0177FD64C080859185681724
:1012800079070CF05EC057FD5CC0828593854817D6
:1012900059070CF056C086898230B1F0833029F1AD
:1012A000813041F484819581841B950BAB01BC0195
:1012B000615071092130310509F108F443C0223031
:1012C000310509F463C0089584819581DC01A61B72
:1012D000B70BBD016150710986819781DC01A41BA8
:1012E000B50BAD0141505109E5CF86819781861B31
:1012F000970BBA01AC0141505109DCCFCA0157FD2F
:101300000796A3E095958795AA95E1F7A481B58105
:101310008A9F90018B9F300D9A9F300D1124620F90
:10132000731F078CF0A1E02DE60FF71F47705527BC
:1013300021E030E001C0220F4A95EAF78081822B3C
:1013400080830895CA0157FD079633E095958795E8
:101350003A95E1F7A481B5818A9F90018B9F300D6A
:101360009A9F300D1124620F731F078CF0A1E02D9E
:10137000E60FF71F4770552781E090E001C0880F06
:101380004A95EAF7809590818923DACFCA0157FD03
:10139000079623E0959587952A95E1F7A481B58175
:1013A0008A9F90018B9F300D9A9F300D1124620F00
:1013B000731F078CF0A1E02DE60FF71F477055272C
:1013C00021E030E001C0220F4A95EAF780818227B0
:1013D000B7CF08958EBD00000DB407FEFDCF8EB5CA
:1013E00008958CBD9DBD08950895FC016370668BC2
:1013F0008481958126813781613039F0633029F00D
:101400009187808733872287089531872087938744
:10141000828708952F923F924F925F926F927F92B0
:101420008F929F92AF92BF92CF92DF92EF92FF92F4
:101430000F931F93CF93DF93CDB7DEB76A970FB6A5
:10144000F894DEBF0FBECDBF9A8F898F7A836983F0
:101450004A01D22E18870F833701BC2CDC01599624
:101460002D913C915A972115310509F015C1189617
:101470008D919C911997681779070CF0D7C11A962E
:101480008D919C91481759070CF0D0C14C2C512CD0
:10149000B6E0CB9E600D711D11247C876B871616FC
:1014A00017060CF0C3C1EA2DF0E0FA87E98793E054
:1014B000EE0FFF1F9A95E1F7F88BEF87CF01840FAE
:1014C000951F181619060CF0B1C1A98DBA8D589642
:1014D0008C91811104C0BFEABD1508F4D394A98D85
:1014E000BA8DED91FC9111970284F385E02DCD0129
:1014F0000995B5E0DB9EC0011124E981FA81FC83E6
:10150000EB83312C212C9C0128593F4F388F2F8B96
:101510004A2D50E05E8B4D8BEF89F88DE20DF31D67
:1015200044919E828D82D12CC12C69817A81620D79
:10153000731D7A8B698B842F90E09C8B8B8BE98D4C
:10154000FA8DA081B18140FF82C0F1E0BF126FC06F
:10155000AF126DC01C96ED91FC912F813885A401CE
:101560004C0D5D1D69897A89898D9A8D0995EB8964
:10157000FC89F595E7954E2F5FEFC51AD50A6D8169
:101580007E818D899E89680F791F7E836D8398E0A7
:10159000C916D10481F6AFEF2A1A3A0AEB81FC8111
:1015A000E40DF51DFC83EB83F5E02F16310409F003
:1015B000B3CF2F81388526153705B9F0A98DBA8D9F
:1015C000ED91FC91B1E0BB1257C0AB1255C06981DF
:1015D0007A816B5F7F4F0088F189E02D830128E0DD
:1015E00030E0A401898D9A8D0995A98DBA8DED9170
:1015F000FC9111970688F789E02DCD016A960FB608
:10160000F894DEBF0FBECDBFDF91CF911F910F9138
:10161000FF90EF90DF90CF90BF90AF909F908F9012
:101620007F906F905F904F903F902F9009941E96FF
:10163000ED91FC91EF80F88409851A8592014D8126
:101640005E816B817C81898D9A8D099590CF2F81E8
:1016500038852615370509F48ACF31E0B31207C063
:10166000A31205C01C96ED91FC91930178CF1E96B4
:10167000ED91FC917301E0CF6B857C856419750950
:101680000684F785E02D73010F8518899201A40166
:10169000898D9A8D0995A9CFF90134969491329745
:1016A00045915491D91AB7E0DB9E400D511D11248C
:1016B000F901259134913C8B2B8BFA0125903490C4
:1016C000FA013296749031963491398B3296649047
:1016D0003196449041E04C1518F04A1508F07FC04F
:1016E000662D062C000C770B7C836B83842D042CD9
:1016F000000C990B9E838D83A98DBA8DED91FC9181
:1017000011970284F385E02DCD010995512CD12C40
:10171000C12CEA2DF0E0FA87E9872B2D30E03C87D9
:101720002B87A401440D511D47FC5A95588F4F8BB0
:1017300069817A81660D711D67FC7A957E876D8758
:101740007989C71608F051CF2C2D30E04D815E818C
:10175000420F531FA985BA854A9FC0014B9F900D28
:101760005A9F900D1124FC01E80DF91DF88BEF87AD
:10177000852D612C4F89588D420F531F5E8B4D8BE9
:10178000671408F050C044244394480E877041F415
:10179000C1010196EB89FC89E20DF31DD4901C0177
:1017A000D7FE19C0A98DBA8DED91FC91662D70E020
:1017B000B1E0BB1219C0AB1217C02D853E85620F78
:1017C000731F0484F585E02D2F8138854D895E894E
:1017D000898D9A8D0995DD0C6394842DD1CF1E825D
:1017E0001D821C821B8288CF4B815C81640F751F18
:1017F000AB85BC856A9FC0016B9F900D7A9F900D51
:10180000112469817A81680F791F0684F785E02D9C
:10181000EF80F88409851A859D014F855889898D47
:101820009A8D0995D8CF570CC3948ACF6A960FB674
:10183000F894DEBF0FBECDBFDF91CF911F910F9106
:10184000FF90EF90DF90CF90BF90AF909F908F90E0
:101850007F906F905F904F903F902F9008958F9260
:101860009F92AF92CF92EF92FF920F931F93CF93DD
:10187000DF93EC01262F898D9A8D009709F051C0D6
:101880006A30D1F41D861C868D8948E0849F9001C2
:1018900011248E859F85820F931F9F878E8781E0FD
:1018A00090E0DF91CF911F910F91FF90EF90CF903B
:1018B000AF909F908F9008956D3089F3CC88AD885C
:1018C0008F898823C1F08C859D8536E0C39E800D6D
:1018D000911D1124488559854817590764F44E8590
:1018E0005F851D861C8638E0A39EC0011124840FED
:1018F000951F9F878E87EA88FB88088919894E85FE
:101900005F856C857D85CE010E940A0A2C898C85B5
:101910009D8546E0249F800D911D11249D878C8715
:10192000BECF6A3069F41D861C86FC013896E491AE
:101930002D898E859F85E29F800D911D1124ADCF4D
:101940006D3009F4ACCFFC0134963491631708F480
:10195000A6CF3296E491E61708F4A1CFFC013296A7
:1019600085909490462F431B342F47E0349F800C82
:10197000911C1124F401329634913196E491332371
:10198000A9F1EE2399F1CC88F4013596E491AD8864
:101990004F89442301F10E2E000CFF0BE30FF11DC4
:1019A000CE9EA001CF9E500D11246C857D85460FE3
:1019B000571F68857985641775076CF44E855F85B8
:1019C0001D861C86FC013896E491AE9E400D511D8B
:1019D00011245F874E87EA88FB88088919894E851C
:1019E0005F856C857D85CE010E940A0AF4013496DC
:1019F000E4912C898C859D85E29F800D911D112499
:101A00008DCF6F927F928F929F92AF92BF92CF9223
:101A1000DF92EF92FF920F931F93CF93DF93EC012E
:101A20006B015A0139014801E881F9810284F3858B
:101A3000E02D0995E881F9810288F389E02D87017D
:101A40009301A501B601CE010995A501480D591DC7
:101A500041505109E881F9810288F389E02D930111
:101A6000B601CE010995E881F9810088F189E02D60
:101A70009401A501B601CE010995C60CD71CB6018B
:101A800061507109E881F9810088F189E02D9401A4
:101A9000A501CE010995E881F9810688F789E02D35
:101AA000CE01DF91CF911F910F91FF90EF90DF90CA
:101AB000CF90BF90AF909F908F907F906F90099440
:101AC0006F927F928F929F92AF92BF92CF92DF924E
:101AD000EF92FF920F931F93CF93DF935C01EB0183
:101AE0006A01490138018701DC01ED91FC9162171F
:101AF000730719F5641675062CF0962D872D3A019B
:101B0000C92ED82E9601261937092F5F3F4F048C16
:101B1000F58DE02DA301BE01C5010995DF91CF919F
:101B20001F910F91FF90EF90DF90CF90BF90AF90FB
:101B30009F908F907F906F9008954615570591F470
:101B40002617370724F0892D4B01C22FD82F9E016D
:101B5000281939092F5F3F4F068CF78DE02DA6011C
:101B6000B401DACF0284F385E02D0995D501ED911A
:101B7000FC910488F589E02D83019401A601BE0142
:101B8000C5010995D501ED91FC910688F789E02DF5
:101B9000C501DF91CF911F910F91FF90EF90DF90E2
:101BA000CF90BF90AF909F908F907F906F9009944F
:101BB000EF92FF920F931F93DC011A960D911C91E7
:101BC0001B9718962D913C911997ED91FC9100A0CF
:101BD000F1A1E02D7B0150E040E070E060E009956C
:101BE0001F910F91FF90EF9008954F925F926F9227
:101BF0007F928F929F92AF92BF92CF92DF92EF929D
:101C0000FF920F931F93CF93DF936C012B015A0127
:101C100039014801DC01ED91FC910284F385E02D4E
:101C20000995E201640C751CD601ED91FC91C61575
:101C3000D7055CF40088F189E02D87019401A501A6
:101C4000BE01C60109952196EFCF0688F789E02DE0
:101C5000C601DF91CF911F910F91FF90EF90DF9020
:101C6000CF90BF90AF909F908F907F906F905F903C
:101C70004F9009948F929F92AF92BF92CF92DF9232
:101C8000EF92FF920F931F93CF93DF93EC015B01D1
:101C90004A016901E881F9810284F385E02D099503
:101CA00095012C0D3D1D21503109E881F9810488F1
:101CB000F589E02D78018401A401B501CE010995D3
:101CC000E881F9810688F789E02DCE01DF91CF9177
:101CD0001F910F91FF90EF90DF90CF90BF90AF904A
:101CE0009F908F9009948F929F92AF92BF92CF92C4
:101CF000DF92EF92FF920F931F93CF93DF93EC014C
:101D00005B014A0169017801E881F9810284F38568
:101D1000E02D0995C80CD91C860101501109E881F4
:101D2000F9810488F589E02D9501A401B501CE0162
:101D30000995E881F9810688F789E02DCE01DF91C8
:101D4000CF911F910F91FF90EF90DF90CF90BF90B8
:101D5000AF909F908F900994EF92FF920F931F93F3
:101D6000DC01ED91FC9100A0F1A1E02D09951F91FE
:101D70000F91FF90EF9008950F931F93DC01ED9169
:101D8000FC91068CF78DE02D09951F910F91089518
:101D90000F931F93DC01ED91FC91048CF58DE02DE8
:101DA00009951F910F910895DC01ED91FC9100843C
:101DB000F185E02D09943F924F925F926F927F924E
:101DC0008F929F92AF92BF92CF92DF92EF92FF924B
:101DD0000F931F93CF93DF935C017B014A0169014D
:101DE000390187E0680E711C93E0759467949A95A9
:101DF000E1F72B01400E511E10E000E0312CD0E045
:101E0000C0E0CE0187709927330C892B59F4FE016D
:101E100083E0F595E7958A95E1F7E00FF11FE80D6E
:101E2000F91D349037FE0AC021E030E0A701B5016A
:101E30006C0F7D1F82E693E00E94D40E2196CC1693
:101E4000DD06F9F68FEFE81AF80A060D171DE414FF
:101E5000F504A9F6DF91CF911F910F91FF90EF90BC
:101E6000DF90CF90BF90AF909F908F907F906F90BA
:101E70005F904F903F9008952F923F924F925F92C4
:101E80006F927F928F929F92AF92BF92CF92DF928A
:101E9000EF92FF920F931F93CF93DF9300D000D068
:101EA00000D0CDB7DEB73C016A013E832D83FC82B2
:101EB000EB825801A41AB50AB7FE03C0B194A194ED
:101EC000B1088D809E80861A970A97FE03C0919470
:101ED000819491088A149B045CF0902F812F0D81CE
:101EE0001E819D838E839C2D8D2D6B01692F782FF4
:101EF0000C151D055CF09D818E817E836D83692F9D
:101F0000782F902F812F8601C92ED82E1601201AE6
:101F1000310A2B012D813E81421A530A57FE03C01C
:101F2000519441945108710137FE03C03FEFE31A09
:101F3000F30AF594E7948D819E81861797075CF5E7
:101F4000A1E0B0E0BA83A983C016D1064CF1D30159
:101F5000ED91FC910484F585E02D2B813C81A80155
:101F60006D817E818A149B041CF04D815E81B801D5
:101F7000C3010995E418F508F7FE0AC02D813E81DA
:101F800089819A81280F391F3E832D83E20CF31C2F
:101F90000F5F1F4FD9CF2FEF3FEF3A832983D4CF65
:101FA00026960FB6F894DEBF0FBECDBFDF91CF915E
:101FB0001F910F91FF90EF90DF90CF90BF90AF9067
:101FC0009F908F907F906F905F904F903F902F9059
:101FD0000895089520914802260F3327331F213298
:101FE0003105ECF420916C02FC0190E080E024309B
:101FF00069F082E00895A09148022191AC01485D0A
:102000005D4FA40FB52FB11D2C930196861798F341
:1020100080914802680F6093480280E0089581E053
:10202000089510926C0281E080936E0210926D020E
:1020300061E082E10E94C50561E083E10E94C5057F
:10204000E9EBF0E080818E7F808380818D7F8083CB
:1020500088E48093B80085E48093BC000895CF9312
:10206000DF9391E0909327028823B9F0C091B800E4
:10207000D091BA008091BC008A7B8093BC0060E064
:1020800082E10E94C50560E083E10E94C5050E94CF
:102090001110D093BA00C093B800DF91CF9108958A
:1020A000E091A8028091A702E81730F4F0E0EE5F1B
:1020B000FD4F808190E008958FEF9FEF08959091FC
:1020C000A8028091A7022FEF3FEF981748F4E92F5D
:1020D000F0E0EE5FFD4F208130E09F5F9093A8021B
:1020E000C90108958091A7029091A802891B990BBC
:1020F0000895CF92DF92EF92FF920F931F93CF93A9
:10210000DF937C01CB018A012091AC02222389F06C
:10211000EB016B01C40ED51ECC15DD0569F069918C
:10212000D701ED91FC910190F081E02DC701099557
:10213000F3CF642F0E94EA0FC801DF91CF911F9166
:102140000F91FF90EF90DF90CF900895CF93DF93A2
:102150001F92CDB7DEB769832091AC022223F9F03C
:102160002091A902203258F021E030E0FC013383B5
:10217000228390E080E00F90DF91CF9108958091CD
:10218000AA02E82FF0E0EE51FE4F998190838F5F15
:102190008093AA028093A90281E090E0ECCF61E0F5
:1021A000CE0101960E94EA0FF7CFCF92DF92EF9215
:1021B000FF920F931F93CF93DF93D091A90281E0F9
:1021C000D13208F09CC0C091AB020E942F066B0177
:1021D0007C0180916C0281116CC082E080936C0262
:1021E00081E080936E028FEF80936B0210929002D9
:1021F000D0938F02A2EEB1E0EFE6F2E080E0D813D8
:102200008DC01092910280919102CC0FC82BC09387
:10221000910280916D02813009F084C010926D02AC
:102220000E942F066B017C01809191028093BB007C
:102230008091230290912402A0912502B091260260
:10224000892B8A2B8B2BA1F00E942F060091230251
:102250001091240220912502309126026C197D09EB
:102260008E099F09061717072807390708F442C087
:102270008091BC0083FDD8CF85EC8093BC000E9488
:102280002F066B017C0180916C02823009F44CC0F6
:1022900080916B028F3F09F469C080916B0280329C
:1022A00009F466C080916B02803309F463C084E056
:1022B00026C08091230290912402A0912502B09122
:1022C0002602892B8A2B8B2B09F483CF0E942F06A1
:1022D00000912302109124022091250230912602C0
:1022E0006C197D098E099F090617170728073907FA
:1022F00008F06FCF809122020E942F1085E010928B
:10230000AA021092A9021092AC02DF91CF911F9104
:102310000F91FF90EF90DF90CF9008959D91919352
:102320008F5F6DCF85EEA9CF80912302909124021B
:10233000A0912502B0912602892B8A2B8B2B09F4C0
:10234000A2CF0E942F060091230210912402209117
:102350002502309126026C197D098E099F09061706
:1023600017072807390708F08ECFC4CF80E0C7CF02
:1023700082E0C5CF83E0C3CFEF92FF920F931F930C
:10238000CF93DF937C01C62F80917F0390918003D0
:10239000009709F459C02091830331E03093AC02D7
:1023A0002093AB021092AA021092A902DC01ED91D7
:1023B000FC910190F081E02D60E009958701EE2409
:1023C000E394F12CD1E0C15080917F039091800380
:1023D000CF3F91F1B0E2EB16F104D8F00E94D51096
:1023E00080917F039091800320918303D093AC026E
:1023F0002093AB021092AA021092A902DC01ED9187
:10240000FC910190F081E02D60E00995EE24E394C9
:10241000F12C80917F0390918003F8016491DC019D
:10242000ED91FC910190F081E02D0995BFEFEB1A41
:10243000FB0A0F5F1F4FC7CFDF91CF911F910F9105
:10244000FF90EF900C94D510E0918F03F0919003E2
:102450009081809195038095892380838701C15065
:1024600008F438C0F801849120917D0330917E03F7
:10247000232B29F00E94EA090F5F1F4FF0CF28E0BD
:1024800030E040E8E0918B03F0918C03909193034E
:10249000582F5423D9F05081952B9083E0918D03D0
:1024A000F0918E03908150919403952B9083E0914D
:1024B0008D03F0918E035081909194039095952314
:1024C0009083469521503109E9F6D6CF50819095F9
:1024D0009523E3CFDF91CF911F910F91FF90EF9064
:1024E00008951F93CF93DF93EC018D8D9E8D009700
:1024F00021F1162F29A131E03093AC022093AB02D9
:102500001092AA021092A902DC01ED91FC910190B7
:10251000F081E02D60E009958D8D9E8DDC01ED91BF
:10252000FC910190F081E02D612F09958D8D9E8D9C
:10253000DF91CF911F910C94D510ADA5BEA59C91B4
:102540008BA9809589238C938B8D9C8D892B31F061
:10255000862FDF91CF911F910C94EA0928E030E09B
:1025600080E8A9A5BAA599A9462F4823C1F04C91A6
:10257000942B9C93ABA5BCA59C914AA9942B9C93AE
:10258000ABA5BCA54C919AA9909594239C93869554
:102590002150310931F7DF91CF911F9108954C916E
:1025A00090959423E6CFDF92EF92FF920F931F93C3
:1025B000CF93DF9380917F0390918003892B09F45F
:1025C000A5C02091970330919803409199035091B1
:1025D0009A0360E074E284EF90E00E94AE1D205107
:1025E000310941095109569547953795279520930B
:1025F000B80064E084E89AE00E94BC118091660310
:10260000909167038034910509F097C060E282E6FB
:1026100093E00E94711260916603615E82E693E02E
:102620000E9471122091680330916903C9010796D5
:1026300097FD079633E0959587953A95E1F72091B8
:10264000660330916703829F8001839F100D929FE4
:10265000100D1124C0918103D091820380917F03DA
:10266000909180030C0F1D1F009709F498C02091D2
:10267000830331E03093AC022093AB021092AA02A4
:102680001092A902DC01ED91FC910190F081E02D06
:1026900060E40995EE24E394F12CDD24D394809139
:1026A0007F03909180030C171D0709F44FC0B0E21F
:1026B000EB16F104D8F00E94D51080917F03909121
:1026C000800320918303D092AC022093AB0210923E
:1026D000AA021092A902DC01ED91FC910190F08117
:1026E000E02D60E40995EE24E394F12C80917F03C2
:1026F000909180036991DC01ED91FC910190F08152
:10270000E02D0995BFEFEB1AFB0AC9CF80917D033D
:1027100090917E03892B31F08091A0039091A103C9
:102720000E94F109E0919103F091920390818091D0
:1027300096038095892380835CCF60E082E693E0F6
:102740000E94711260916603615068CF0E94D5109B
:1027500080917F0390918003892B09F461C02091BF
:102760009B0330919C0340919D0350919E0360E038
:1027700074E284EF90E00E94AE1D205131094109BE
:10278000510956954795379527952093B800DF91C5
:10279000CF911F910F91FF90EF90DF900895E091FE
:1027A0008F03F0919003808190919503892B808312
:1027B0000C171D0769F2899120917D0330917E03EA
:1027C000232B19F00E94EA09F3CF28E030E040E81B
:1027D000E0918B03F0918C0390919303582F542335
:1027E000D9F05081952B9083E0918D03F0918E0369
:1027F000908150919403952B9083E0918D03F091FB
:102800008E035081909194039095952390834695E3
:1028100021503109E9F6CCCF508190959523E3CF33
:10282000E0919103F0919203808190919603892B1E
:102830008083ADCF1F93CF93DF93EC01162F8D8D47
:102840009E8D892BB1F12DA93EA94FA958AD60E00D
:1028500074E284EF90E00E94AE1D205131094109DD
:10286000510956954795379527952093B80066EA04
:10287000111167EACE010E9471128D8D9E8D892BF8
:1028800041F129AD3AAD4BAD5CAD60E074E284EF4F
:1028900090E00E94AE1D2051310941095109569521
:1028A0004795379527952093B800DF91CF911F91D9
:1028B00008958B8D9C8D892B21F08EAD9FAD0E944C
:1028C000F109EFA5F8A990818CA9809589238083CF
:1028D000CECFEFA5F8A980819CA9892B8083E5CF75
:1028E00090E080E008952091680330916903C90168
:1028F000079697FD079623E0959587952A95E1F72A
:102900002091660330916703829FA001839F500D41
:10291000929F500D112470E060E0809181039091AE
:1029200082030C94C61F0F931F93CF93C82F8091DF
:10293000810390918203892B09F10E9473142091E5
:102940006803309169038091660390916703213297
:102950003105C4F5B9016052710977FF02C06F5F9C
:102960007F4F759567958357910997FD019600E212
:1029700010E023E730E044EE55E037C020916803D3
:1029800030916903C901079697FD0796B3E09595C5
:102990008795BA95E1F72091660330916703AC0102
:1029A000429FC001439F900D529F900D11240E94A1
:1029B000D61D9093820380938103892B09F0BDCFAC
:1029C00080E0D7C1B9016054710977FF02C06F5F21
:1029D0007F4F759567958255910997FD019600E4A3
:1029E00010E022E530E044EC57E0959587950E9491
:1029F000DB0E82E08093840380917F0390918003BB
:102A0000892B09F493C0C09383031092A8021092FB
:102A1000A7021092AA021092A9020E94111081E747
:102A200095E09093A6028093A50282E795E09093AB
:102A3000A4028093A30280918A0387FD1EC061E0F7
:102A40000E94F30561E080918A030E94C50561E060
:102A500070E080E090E00E94540660E080918A037C
:102A60000E94C5056AE070E080E090E00E94540694
:102A700061E080918A030E94C50580917F03909157
:102A80008003892B09F411C1209197033091980399
:102A90004091990350919A0360E074E284EF90E0D2
:102AA0000E94AE1D205131094109510956954795A3
:102AB000379527952093B80064E08EEA95E00E9450
:102AC000BC1160916803615082E693E00E9471122C
:102AD00064E08AEA95E00E94BC118091840364E17D
:102AE000813009F460E182E693E00E94711264E0B3
:102AF00086EA95E00E94BC118FE880939F03809145
:102B00006603909167038038910509F036C1809182
:102B10006803909169038034910509F03EC180916A
:102B20008403813009F4D8C08FECD7C061E0809174
:102B300088030E94F30561E0809189030E94F305F8
:102B400080918803082E000C990BFC01E053FA4F8A
:102B5000E491F0E0EE0FFF1FEA53FA4F2591349114
:102B60003093900320938F03FC01EE54FA4FE491CD
:102B7000E093950380918903082E000C990BFC01CA
:102B8000E053FA4FE491F0E0EE0FFF1FEA53FA4FE3
:102B9000A591B491B0939203A0939103FC01EE54DC
:102BA000FA4FE491E09396038C91E82BEC9380919B
:102BB0007D0390917E03892B09F434C0CFB7F8943C
:102BC0008091A202811127C0EAEDF5E08491ECEB3F
:102BD000F5E09491E82FF0E0EE0FFF1FEA56FA4F70
:102BE000A591B491EC91E92321F461E08AE00E947F
:102BF000C50561E08AE00E94F3058CB580618CBD5B
:102C00008CB580648CBD61E08DE00E94F30561E0CD
:102C10008BE00E94F3058091A2028F5F8093A20255
:102C2000CFBF09CF61E0809186030E94F30561E088
:102C3000809187030E94F30580918603082E000C83
:102C4000990BFC01E053FA4FE491F0E0EE0FFF1F07
:102C5000EA53FA4F2591349130938C0320938B03E0
:102C6000FC01EE54FA4FE491E093930380918703C3
:102C7000082E000C990BFC01E053FA4FE491F0E0B0
:102C8000EE0FFF1FEA53FA4FA591B491B0938E0354
:102C9000A0938D03FC01EE54FA4FE491E09394036A
:102CA0008C91E095E823EC93C6CE80917D039091C2
:102CB0007E03892B31F08091A0039091A1030E94A3
:102CC000F109E0919103F091920390818091960334
:102CD000809589238083F0CE8FE980939F03C2E1A2
:102CE0006AED82E693E00E9471126C2F82E693E017
:102CF0000E94711261E882E693E00E947112609175
:102D00009F0382E693E00E94711269ED82E693E0F0
:102D10000E9471128091840361EF813009F462E2B4
:102D200082E693E00E94711266E080EA95E00E94DC
:102D3000BC1180917F0390918003892B09F441C0DD
:102D400020919B0330919C0340919D0350919E03E1
:102D500060E074E284EF90E00E94AE1D20513109E2
:102D60004109510956954795379527952093B80005
:102D700081E0CF911F910F9108958036910589F4DC
:102D80008091680390916903409739F4809184039E
:102D9000813029F08FEA80939F03C2E0A1CF80E1C8
:102DA000FACF80349105C9F7809168039091690347
:102DB000809799F780918403813009F0B5CE80E146
:102DC0008CCFE0919103F0919203808190919603D2
:102DD000892B8083CDCF0E94B81F0F931F93CF9371
:102DE000DF93EC0188819981009759F02A813B811A
:102DF0002617370730F081E0DF91CF911F910F91B7
:102E000008958B016F5F7F4F0E94FB1E009759F062
:102E1000998388831B830A832C813D81232B59F757
:102E2000FC011082E8CF80E0E7CFFC018081918136
:102E3000009711F00C94721E0895FB010190002080
:102E4000E9F73197AF01461B570BDC01ED91FC917F
:102E50000280F381E02D0994CF93DF93FC0144813C
:102E600055816081718182E693E00E948606EC01C3
:102E700066E571E082E693E00E941D178C0F9D1FAE
:102E8000DF91CF910895CF93DF93EC010E947314EB
:102E9000E2E6F3E01586148689E190E0978786875D
:102EA000CE010E942C17DF91CF910C94D3128F92F8
:102EB0009F92AF92BF920F931F93CF93DF93CDB7A3
:102EC000DEB7A1970FB6F894DEBF0FBECDBF19A233
:102ED000423008F44AE08E010F5D1F4F842E912C82
:102EE000B12CA12CA50194010E94AE1DE62FB901C1
:102EF000CA01EA3004F5E05DD801EE938D01232B81
:102F0000242B252B79F790E080E0109729F0BD0164
:102F100082E693E00E941D17A1960FB6F894DEBFDB
:102F20000FBECDBFDF91CF911F910F91BF90AF909A
:102F30009F908F900895E95CDFCF0F931F93CF93FD
:102F4000DF93EC010E941D178C0166E571E0CE0154
:102F50000E941D17800F911FDF91CF911F910F913C
:102F60000895EF92FF920F931F93CF93DF93EC019D
:102F70007B01198218821B821A821D821C82FB012E
:102F800001900020E9F731978F01061B170BB8015C
:102F90000E94ED1628813981811113C02115310558
:102FA00019F0C9010E94721E198218821D821C82AA
:102FB0001B821A82DF91CF911F910F91FF90EF90AA
:102FC00008951D830C83B701C901DF91CF911F9133
:102FD0000F91FF90EF900C94D61F85ED8093BC006D
:102FE0008091230290912402A0912502B0912602A3
:102FF0000796A11DB11D23E0B695A79597958795D6
:103000002A95D1F72091BC0024FD03C010926C02D8
:1030100008954091230250912402609125027091FD
:103020002602452B462B472B69F30097A105B105D6
:1030300041F02AE22A95F1F700C00197A109B109F0
:10304000E1CF809122020C942F10CF92DF92EF9269
:10305000FF92CF93DF9300D000D000D0CDB7DEB782
:10306000F82E68EC70E080E090E00E945406F9824F
:103070001A82E0904E03F0904F038FEFE81AF80A9F
:10308000B7018AE493E00E94ED16882399F020911D
:103090004A0330914B0380914E0390914F03BE0140
:1030A0006F5F7F4F820F931F0E94D61FF0924F03D6
:1030B000E0924E030E94731410926F0310926E03FD
:1030C0008AE090E0909371038093700369E571E06A
:1030D00082E693E00E949D1710926F0310926E0398
:1030E0008EE190E090937103809370038AE493E003
:1030F0000E942C170E94D31280914E0390914F038F
:10310000049709F0E1C0809154039091550304970E
:10311000A9F480914A0390914B0360915003709100
:103120005103009709F492C06115710521F4FC0167
:10313000808190E094C00E94CD1F91C08091920246
:1031400090919302019690939302809392020E9431
:10315000731410926F0310926E038AE090E09093C4
:103160007103809370036DE671E082E693E00E9444
:103170009D1710926F0310926E038EE190E0909372
:1031800071038093700369E771E082E693E00E9427
:103190001D17C0909202D09093020D2C000CEE08E7
:1031A000FF084AE0C701B601F7FE0DC06DE282E6F6
:1031B00093E00E942F0C66277727CB016C197D09BD
:1031C0008E099F094AE00E9457170E94D31268EEA9
:1031D00073E080E090E00E9454068091920290910A
:1031E00093020497D4F081E0809398022FB7F8946B
:1031F00080919A0290919B02A0919C02B0919D02B5
:103200002FBF8093940290939502A0939602B0935F
:10321000970261E088E00E94C50563E871E0CE0195
:1032200001960E94B117CE0101960E944317CE016C
:1032300001960E9415172AC010924F0310924E0358
:1032400068E571E0C9010E94D61F3EC06115710595
:1032500049F0FB01808190E0919581959109892B3E
:1032600009F06CCF60E671E0CE0101960E94B117C3
:10327000CE0101960E944317CE0101960E941517B8
:1032800068EE73E080E090E00E94540670E060E039
:103290008AE493E00E94ED1620914A0330914B039B
:1032A0008111CACF2115310519F0C9010E94721E82
:1032B00010924B0310924A0310924F0310924E0348
:1032C00010924D0310924C0326960FB6F894DEBF71
:1032D0000FBECDBFDF91CF91FF90EF90DF90CF90E9
:1032E00008951F920F920FB60F9211242F933F93C0
:1032F0008F939F93AF93BF9380919A0290919B027B
:10330000A0919C02B0919D023091990223E0230F7D
:103310002D3758F50196A11DB11D20939902809378
:103320009A0290939B02A0939C02B0939D0280917D
:103330009E0290919F02A091A002B091A1020196DD
:10334000A11DB11D80939E0290939F02A093A002A5
:10335000B093A102BF91AF919F918F913F912F9117
:103360000F900FBE0F901F90189526E8230F02961E
:10337000A11DB11DD2CF1F920F920FB60F92112433
:103380002F933F934F935F936F937F938F939F936D
:10339000AF93BF93EF93FF938DEA92E00E940407EF
:1033A000FF91EF91BF91AF919F918F917F916F911D
:1033B0005F914F913F912F910F900FBE0F901F90F3
:1033C00018951F920F920FB60F9211242F938F937F
:1033D0009F93EF93FF93E091BD02F091BE02808135
:1033E000E091C302F091C40282FD1BC090818091E4
:1033F000C6028F5F8F732091C702821741F0E09160
:10340000C602F0E0E355FD4F958F8093C602FF9111
:10341000EF919F918F912F910F900FBE0F901F9062
:1034200018958081F4CF1F920F920FB60F9211243E
:103430002F933F934F935F936F937F938F939F93BC
:10344000AF93BF93EF93FF938091B900887F80364D
:1034500009F44AC0F0F5883209F4A7C018F58031A4
:1034600009F49BC0B8F4882309F4F9C0883009F442
:1034700094C0FF91EF91BF91AF919F918F917F91F8
:103480006F915F914F913F912F910F900FBE0F90D1
:103490001F901895883109F488C0803251F78093C5
:1034A0006B0214C0803409F49DC040F48033B9F33A
:1034B0008833F9F680936B0285ECB0C0803509F44F
:1034C00085C0883509F496C0883499F60E94ED17B6
:1034D000D0CF883909F48CC038F5883729F050F4FA
:1034E000883611F0803729F683E080936C021092C1
:1034F0006A0257C0883809F47BC0803919F08038D7
:1035000009F0B7CF80916A02803208F071C0E09173
:103510006A0281E08E0F80936A028091BB00F0E026
:10352000E65BFD4F80833DC0803B39F0E0F4803A9C
:1035300009F479C0883A09F09CCF84E080936C024A
:103540001092490210924802E091A502F091A60261
:1035500009958091480281110FC081E08093480253
:103560001092280209C0803C09F4A6CF883C09F4D7
:10357000A3CF883B09F07DCFE091490281E08E0F17
:1035800080934902F0E0E85DFD4F80818093BB00AD
:10359000909149028091480229C0809191028093C4
:1035A000BB0085EC8093BC0064CF90919002809129
:1035B0008F02981758F5E091900281E08E0F80936A
:1035C0009002F0E0E159FD4F8081E9CFE091900257
:1035D00081E08E0F809390028091BB00F0E0E15972
:1035E000FD4F80839091900280918F029817C8F2CE
:1035F00085E8D8CFE091900281E08E0F8093900211
:103600008091BB00F0E0E159FD4F808380916E0214
:1036100081115CCF81E080936D0284EA8093BC00CD
:1036200010926C0226CF85EC8093BC0010926C0245
:1036300080916A02803230F4E0916A02F0E0E65B49
:10364000FD4F108260916A0270E0E091A302F09158
:10365000A4028AE492E0099510926A020ACF1092BD
:103660006B0234CFEDEAF2E01382128248EE53E0AF
:1036700060E070E044835583668377838AE091E05D
:103680009183808385EC90E09587848784EC90E03B
:103690009787868780EC90E0918B808B81EC90E01F
:1036A000938B828B82EC90E0958B848B86EC90E000
:1036B000978B868B118E128E138E148EA6E5B3E037
:1036C00013961C921E92129714964D935D936D93D0
:1036D0007C9317978CE191E011969C938E93E2E690
:1036E000F3E01382128220E830E03583248380E403
:1036F00090E0978386833187208793878287168A15
:10370000158614861786168681E0858B848B2FEFAD
:103710003FEF338B228B318B208B878B108E128E59
:10372000118E8EE291E091838083148E138EB68F7A
:10373000A58F10A2178E8FEF84A385A386A387A3DE
:1037400080A780E89AE1A6E0B0E085AB96ABA7AB96
:10375000B0AF80EA96E8A1E0B0E081AF92AFA3AF4E
:10376000B4AF80E586AF17AE6EE871E080E593E018
:103770000E94B11768E571E08AE493E00C94B117F8
:10378000CF93DF9300D000D000D0CDB7DEB77894D0
:1037900084B5826084BD84B5816084BD85B5826056
:1037A00085BD85B5816085BD80916E008160809307
:1037B0006E00109281008091810082608093810070
:1037C0008091810081608093810080918000816080
:1037D000809380008091B10084608093B1008091DB
:1037E000B00081608093B00080917A008460809303
:1037F0007A0080917A00826080937A0080917A00CA
:10380000816080937A0080917A00806880937A004A
:103810001092C100E091BD02F091BE0282E080836F
:10382000E091B902F091BA021082E091BB02F091EE
:10383000BC028FEC80831092C502E091C102F0912E
:10384000C20286E08083E091BF02F091C0028081D5
:1038500080618083E091BF02F091C0028081886026
:103860008083E091BF02F091C002808180688083F4
:10387000E091BF02F091C00280818F7D808362E081
:1038800084E00E94F30562E085E00E94F30562E0B7
:1038900086E00E94F30562E087E00E94F30560E0A5
:1038A00083E00E94F30561E088E00E94F30560E098
:1038B00088E00E94C5051092A8021092A7021092FB
:1038C000AA021092A9020E94111081E795E090933C
:1038D000A6028093A50282E795E09093A4028093CC
:1038E000A3028CE30E949314811112C063E971E07A
:1038F0008DEA92E00E949D178DE30E94931481113E
:1039000007C06FEA71E08DEA92E00E949D17FFCF39
:103910000E94731481E0809376038093770381E0A3
:1039200090E0909375038093740390937303809356
:1039300072030E94D31263E871E0CE0101960E94E7
:10394000B117CE0101960E944317CE0101960E9445
:10395000151780E6882E8AEE982EA12CB12C98EEB1
:10396000492E93E0592E612C712C2AE0222E312C05
:103970000EE110E080919802882309F479C08FB796
:10398000F894C0909A02D0909B02E0909C02F09034
:103990009D028FBF8091940290919502A091960212
:1039A000B0919702C81AD90AEA0AFB0A80E6C8163B
:1039B0008AEED806E104F104C8F010929802109241
:1039C00093021092920260E088E00E94C50563E8CD
:1039D00071E0CE0101960E94B117CE0101960E94BE
:1039E0004317CE0101960E94151735C00E9473142B
:1039F00010926F0310926E03309271032092700345
:103A00006FEB71E082E693E00E949D1710926F03C6
:103A100010926E0310937103009370036BEC71E0CE
:103A200082E693E00E941D17C501B4016C197D095F
:103A30008E099F09A30192010E94AE1DCA01B9011E
:103A40004AE00E94571762ED71E082E693E00E941F
:103A50009D170E94D31280E090E0892B09F48ACF51
:103A60000E94F006882309F485CF0E94000082CFCF
:103A700084E00E949C05892B19F481E40E9425189A
:103A800085E00E949C05892B19F482E40E94251888
:103A900086E00E949C05892B19F483E40E94251876
:103AA00087E00E949C05892B19F484E40E94251864
:103AB00083E00E949C05019771F667ED71E089CF64
:103AC0008AE493E00E94151780E593E00E941517A1
:103AD0008EE291E09093630380936203809181036F
:103AE00090918203009711F00C94721E08952F920A
:103AF0003F924F925F926F927F928F929F92AF927E
:103B0000BF92CF92DF92EF92FF920F931F93CF93CA
:103B1000DF93CDB7DEB7CA1BDB0B0FB6F894DEBF61
:103B20000FBECDBF09942A88398848885F846E8487
:103B30007D848C849B84AA84B984C884DF80EE80D1
:103B4000FD800C811B81AA81B981CE0FD11D0FB6DA
:103B5000F894DEBF0FBECDBFED010895A1E21A2E8D
:103B6000AA1BBB1BFD010DC0AA1FBB1FEE1FFF1F21
:103B7000A217B307E407F50720F0A21BB30BE40B71
:103B8000F50B661F771F881F991F1A9469F76095B8
:103B90007095809590959B01AC01BD01CF01089572
:103BA000EE0FFF1F0590F491E02D09940F931F93E2
:103BB000CF93DF938230910510F482E090E0E091A2
:103BC000A403F091A50330E020E0B0E0A0E030973E
:103BD00099F42115310509F44AC0281B390B24300A
:103BE0003105D8F58A819B816115710589F1FB0149
:103BF00093838283FE0111C0408151810281138130
:103C000048175907E0F04817590799F4109761F0E1
:103C100012960C93129713961C933296CF01DF9154
:103C2000CF911F910F9108950093A4031093A503C2
:103C3000F4CF2115310551F04217530738F0A9018F
:103C4000DB019A01BD01DF01F801C1CFEF01F9CF1E
:103C50009093A5038093A403CDCFFE01E20FF31F41
:103C6000819391932250310939832883D7CF2091B2
:103C7000A2033091A303232B41F420910201309140
:103C800003013093A3032093A203209100013091FC
:103C900001012115310541F42DB73EB740910401D2
:103CA00050910501241B350BE091A203F091A30371
:103CB000E217F307A0F42E1B3F0B2817390778F003
:103CC000AC014E5F5F4F2417350748F04E0F5F1F62
:103CD0005093A3034093A203819391939FCFF0E06D
:103CE000E0E09CCFCF93DF930097E9F0FC0132979F
:103CF00013821282A091A403B091A503ED0130E0DC
:103D000020E01097A1F420813181820F931F209130
:103D1000A2033091A3032817390709F061C0F0937B
:103D2000A303E093A203DF91CF910895EA01CE1798
:103D3000DF07E8F54A815B819E0141155105B1F726
:103D4000E901FB83EA8349915991C40FD51FEC1710
:103D5000FD0761F4808191810296840F951FE9012E
:103D600099838883828193819B838A83F0E0E0E05A
:103D700012968D919C9113970097B9F52D913C91D6
:103D80001197CD010296820F931F2091A2033091CB
:103D9000A3032817390739F6309751F51092A50378
:103DA0001092A403B093A303A093A203BCCFD38328
:103DB000C28340815181840F951FC817D90761F4D0
:103DC0004E5F5F4F88819981480F591F518340830F
:103DD0008A819B81938382832115310509F0B0CFBD
:103DE000F093A503E093A4039ECFFD01DC01C0CFB7
:103DF00013821282D7CFB0E0A0E0E1E0FFE10C94A3
:103E0000791D8C01009751F4CB010E94D61D8C01C5
:103E1000C801CDB7DEB7E0E10C94951DFC01E60FBB
:103E2000F71F9C0122503109E217F30708F49DC0E7
:103E3000D901CD91DC911197C617D70798F0C530FD
:103E4000D10530F3CE0104978617970708F3C61BF8
:103E5000D70B2297C193D1936D937C93CF010E948E
:103E6000721ED6CF5B01AC1ABD0A4C018C0E9D1E92
:103E7000A091A403B091A503512C412CF12CE12C6D
:103E8000109731F58091A2039091A30388159905AD
:103E900009F05CC04616570608F058C08091000132
:103EA00090910101009741F48DB79EB740910401B4
:103EB00050910501841B950BE817F90708F055C0D0
:103EC000F093A303E093A203F90171836083A0CF71
:103ED0008D919C91119712966C90129713967C90ED
:103EE0001397A815B90559F56C0142E0C40ED11C11
:103EF000CA14DB0420F1AC014A195B09DA011296FD
:103F0000159780F06282738251834083D9016D934B
:103F10007C93E114F10471F0D7011396FC93EE93B6
:103F2000129776CF22968C0F9D1FF9019183808383
:103F3000F301EFCFF093A503E093A40369CF4816F4
:103F4000590608F42C017D01D3019ACFCB010E94C0
:103F5000D61D7C01009749F0AE01B8010E94BD1F3B
:103F6000C8010E94721E870153CF10E000E050CFBD
:103F700081E090E0F8940C94DD1FFB01DC0102C0AD
:103F800001900D9241505040D8F70895DC0101C0D6
:103F90006D9341505040E0F70895FB01DC018D9195
:103FA000019080190110D9F3990B0895FB01DC01F0
:103FB00001900D920020E1F7089515E0C5E4D5E0E9
:103FC00004C0FE010E94D01D2196C634D107C9F756
:043FD000F894FFCF93
:103FD4000000A60380000000000026078606B30642
:103FE4007307E406C206D60600000000A610791086
:103FF4007014700572105F105010000000002F0C38
:1040040086067014E90F3A097005D40EAC0EC80E7A
:10401400BC0E3C0F7005F5091A14AA08F308F50D37
:10402400D80D600D010D0D0A00496E7075743A00CB
:10403400436F727265637420436F64650057726FD7
:104044006E6720436F64652100417474656D7074FC
:104054003A2000456E74657220436F6465004142E6
:1040640044430030783343206661696C65642C20D6
:10407400747279696E6720307833442E2E2E004F87
:104084004C4544206E6F7420666F756E6421004C3D
:104094004F434B4544204F55542100576169743AAE
:1040A400200020736563004C4F434B204F50454E16
:0240B40000000A
:00000001FF
